{
  "contractName": "EvChargingMarket",
  "abi": [
    {
      "inputs": [],
      "stateMutability": "nonpayable",
      "type": "constructor"
    },
    {
      "anonymous": false,
      "inputs": [
        {
          "indexed": true,
          "internalType": "uint256",
          "name": "_aucId",
          "type": "uint256"
        }
      ],
      "name": "ActionClosed",
      "type": "event"
    },
    {
      "anonymous": false,
      "inputs": [
        {
          "indexed": false,
          "internalType": "address",
          "name": "bidder",
          "type": "address"
        },
        {
          "indexed": false,
          "internalType": "uint256",
          "name": "_price",
          "type": "uint256"
        },
        {
          "indexed": false,
          "internalType": "bytes32",
          "name": "_sealedBid",
          "type": "bytes32"
        }
      ],
      "name": "BidNotCorrectelyRevealed",
      "type": "event"
    },
    {
      "anonymous": false,
      "inputs": [
        {
          "indexed": false,
          "internalType": "uint256",
          "name": "_aucId",
          "type": "uint256"
        },
        {
          "indexed": false,
          "internalType": "address",
          "name": "_buyer",
          "type": "address"
        },
        {
          "indexed": false,
          "internalType": "address",
          "name": "_seller",
          "type": "address"
        }
      ],
      "name": "ContractEstablished",
      "type": "event"
    },
    {
      "anonymous": false,
      "inputs": [
        {
          "indexed": true,
          "internalType": "uint256",
          "name": "_aucId",
          "type": "uint256"
        },
        {
          "indexed": true,
          "internalType": "address",
          "name": "winner",
          "type": "address"
        }
      ],
      "name": "EndReveal",
      "type": "event"
    },
    {
      "anonymous": false,
      "inputs": [
        {
          "indexed": false,
          "internalType": "address",
          "name": "_seller",
          "type": "address"
        },
        {
          "indexed": false,
          "internalType": "uint256",
          "name": "_aucId",
          "type": "uint256"
        },
        {
          "indexed": false,
          "internalType": "uint256",
          "name": "_price",
          "type": "uint256"
        },
        {
          "indexed": false,
          "internalType": "uint256",
          "name": "_amount",
          "type": "uint256"
        }
      ],
      "name": "FirstOfferAccepted",
      "type": "event"
    },
    {
      "anonymous": false,
      "inputs": [
        {
          "indexed": true,
          "internalType": "address",
          "name": "buyer",
          "type": "address"
        },
        {
          "indexed": false,
          "internalType": "uint256",
          "name": "_aucId",
          "type": "uint256"
        },
        {
          "indexed": false,
          "internalType": "uint256",
          "name": "_maxPrice",
          "type": "uint256"
        },
        {
          "indexed": false,
          "internalType": "uint256",
          "name": "_amount",
          "type": "uint256"
        },
        {
          "indexed": false,
          "internalType": "uint256",
          "name": "_time",
          "type": "uint256"
        },
        {
          "indexed": false,
          "internalType": "uint256",
          "name": "_auctionTime",
          "type": "uint256"
        },
        {
          "indexed": false,
          "internalType": "uint256",
          "name": "_location",
          "type": "uint256"
        }
      ],
      "name": "LogReqCreated",
      "type": "event"
    },
    {
      "anonymous": false,
      "inputs": [
        {
          "indexed": false,
          "internalType": "address",
          "name": "_seller",
          "type": "address"
        },
        {
          "indexed": false,
          "internalType": "uint256",
          "name": "_aucId",
          "type": "uint256"
        },
        {
          "indexed": false,
          "internalType": "uint256",
          "name": "_price",
          "type": "uint256"
        },
        {
          "indexed": false,
          "internalType": "uint256",
          "name": "_amount",
          "type": "uint256"
        }
      ],
      "name": "LowestBidDecreased",
      "type": "event"
    },
    {
      "anonymous": false,
      "inputs": [
        {
          "indexed": false,
          "internalType": "uint256",
          "name": "_aucId",
          "type": "uint256"
        }
      ],
      "name": "ReportNotOk",
      "type": "event"
    },
    {
      "anonymous": false,
      "inputs": [
        {
          "indexed": false,
          "internalType": "uint256",
          "name": "_aucId",
          "type": "uint256"
        }
      ],
      "name": "ReportOk",
      "type": "event"
    },
    {
      "anonymous": false,
      "inputs": [
        {
          "indexed": false,
          "internalType": "address",
          "name": "seller",
          "type": "address"
        },
        {
          "indexed": false,
          "internalType": "uint256",
          "name": "_aucId",
          "type": "uint256"
        },
        {
          "indexed": false,
          "internalType": "bytes32",
          "name": "_sealedBid",
          "type": "bytes32"
        },
        {
          "indexed": false,
          "internalType": "uint256",
          "name": "_bidId",
          "type": "uint256"
        }
      ],
      "name": "SealedBidReceived",
      "type": "event"
    },
    {
      "inputs": [
        {
          "internalType": "address",
          "name": "",
          "type": "address"
        }
      ],
      "name": "accounts",
      "outputs": [
        {
          "internalType": "int256",
          "name": "balance",
          "type": "int256"
        },
        {
          "internalType": "bool",
          "name": "isUser",
          "type": "bool"
        }
      ],
      "stateMutability": "view",
      "type": "function",
      "constant": true
    },
    {
      "inputs": [
        {
          "internalType": "uint256",
          "name": "",
          "type": "uint256"
        }
      ],
      "name": "contracts",
      "outputs": [
        {
          "internalType": "address",
          "name": "buyer",
          "type": "address"
        },
        {
          "internalType": "address",
          "name": "seller",
          "type": "address"
        },
        {
          "internalType": "uint256",
          "name": "amount",
          "type": "uint256"
        },
        {
          "internalType": "uint256",
          "name": "buyerMaxPrice",
          "type": "uint256"
        },
        {
          "internalType": "uint256",
          "name": "currentPrice",
          "type": "uint256"
        },
        {
          "internalType": "uint256",
          "name": "secondLowestPrice",
          "type": "uint256"
        },
        {
          "internalType": "bool",
          "name": "buyerMeterReport",
          "type": "bool"
        },
        {
          "internalType": "bool",
          "name": "sellerMeterReport",
          "type": "bool"
        },
        {
          "internalType": "uint256",
          "name": "deliveryTime",
          "type": "uint256"
        },
        {
          "internalType": "uint256",
          "name": "auctionTimeOut",
          "type": "uint256"
        },
        {
          "internalType": "uint256",
          "name": "deliveryLocation",
          "type": "uint256"
        },
        {
          "internalType": "enum EvChargingMarket.ContractState",
          "name": "state",
          "type": "uint8"
        }
      ],
      "stateMutability": "view",
      "type": "function",
      "constant": true
    },
    {
      "inputs": [],
      "name": "owner",
      "outputs": [
        {
          "internalType": "address",
          "name": "",
          "type": "address"
        }
      ],
      "stateMutability": "view",
      "type": "function",
      "constant": true
    },
    {
      "inputs": [],
      "name": "totalAuction",
      "outputs": [
        {
          "internalType": "uint256",
          "name": "",
          "type": "uint256"
        }
      ],
      "stateMutability": "view",
      "type": "function",
      "constant": true
    },
    {
      "inputs": [
        {
          "internalType": "uint256",
          "name": "_amount",
          "type": "uint256"
        },
        {
          "internalType": "uint256",
          "name": "_price",
          "type": "uint256"
        },
        {
          "internalType": "uint256",
          "name": "_time",
          "type": "uint256"
        },
        {
          "internalType": "uint256",
          "name": "_auctionTime",
          "type": "uint256"
        },
        {
          "internalType": "uint256",
          "name": "_location",
          "type": "uint256"
        }
      ],
      "name": "createReq",
      "outputs": [],
      "stateMutability": "nonpayable",
      "type": "function"
    },
    {
      "inputs": [
        {
          "internalType": "uint256",
          "name": "_aucId",
          "type": "uint256"
        },
        {
          "internalType": "bytes32",
          "name": "_sealedBid",
          "type": "bytes32"
        }
      ],
      "name": "makeSealedOffer",
      "outputs": [],
      "stateMutability": "nonpayable",
      "type": "function"
    },
    {
      "inputs": [
        {
          "internalType": "uint256",
          "name": "_aucId",
          "type": "uint256"
        }
      ],
      "name": "closeAuction",
      "outputs": [],
      "stateMutability": "nonpayable",
      "type": "function"
    },
    {
      "inputs": [
        {
          "internalType": "uint256",
          "name": "_aucId",
          "type": "uint256"
        }
      ],
      "name": "endReveal",
      "outputs": [],
      "stateMutability": "nonpayable",
      "type": "function"
    },
    {
      "inputs": [
        {
          "internalType": "uint256",
          "name": "_aucId",
          "type": "uint256"
        },
        {
          "internalType": "uint256",
          "name": "_price",
          "type": "uint256"
        }
      ],
      "name": "revealOffer",
      "outputs": [],
      "stateMutability": "nonpayable",
      "type": "function"
    },
    {
      "inputs": [
        {
          "internalType": "uint256",
          "name": "_aucId",
          "type": "uint256"
        },
        {
          "internalType": "bool",
          "name": "_state",
          "type": "bool"
        }
      ],
      "name": "setBuyerMeterReport",
      "outputs": [],
      "stateMutability": "nonpayable",
      "type": "function"
    },
    {
      "inputs": [
        {
          "internalType": "uint256",
          "name": "_aucId",
          "type": "uint256"
        },
        {
          "internalType": "bool",
          "name": "_state",
          "type": "bool"
        }
      ],
      "name": "setSellerMeterReport",
      "outputs": [],
      "stateMutability": "nonpayable",
      "type": "function"
    },
    {
      "inputs": [
        {
          "internalType": "uint256",
          "name": "_aucId",
          "type": "uint256"
        },
        {
          "internalType": "address",
          "name": "_buyer",
          "type": "address"
        },
        {
          "internalType": "address",
          "name": "_seller",
          "type": "address"
        }
      ],
      "name": "updateBalance",
      "outputs": [],
      "stateMutability": "nonpayable",
      "type": "function"
    },
    {
      "inputs": [
        {
          "internalType": "address",
          "name": "_user",
          "type": "address"
        }
      ],
      "name": "registerNewUser",
      "outputs": [],
      "stateMutability": "nonpayable",
      "type": "function"
    },
    {
      "inputs": [
        {
          "internalType": "uint256",
          "name": "_index",
          "type": "uint256"
        }
      ],
      "name": "getReq",
      "outputs": [
        {
          "internalType": "enum EvChargingMarket.ContractState",
          "name": "",
          "type": "uint8"
        }
      ],
      "stateMutability": "view",
      "type": "function",
      "constant": true
    },
    {
      "inputs": [
        {
          "internalType": "uint256",
          "name": "_index",
          "type": "uint256"
        }
      ],
      "name": "getContract",
      "outputs": [
        {
          "components": [
            {
              "internalType": "address",
              "name": "buyer",
              "type": "address"
            },
            {
              "internalType": "address",
              "name": "seller",
              "type": "address"
            },
            {
              "internalType": "uint256",
              "name": "amount",
              "type": "uint256"
            },
            {
              "internalType": "uint256",
              "name": "buyerMaxPrice",
              "type": "uint256"
            },
            {
              "internalType": "uint256",
              "name": "currentPrice",
              "type": "uint256"
            },
            {
              "internalType": "uint256",
              "name": "secondLowestPrice",
              "type": "uint256"
            },
            {
              "internalType": "bool",
              "name": "buyerMeterReport",
              "type": "bool"
            },
            {
              "internalType": "bool",
              "name": "sellerMeterReport",
              "type": "bool"
            },
            {
              "internalType": "uint256",
              "name": "deliveryTime",
              "type": "uint256"
            },
            {
              "internalType": "uint256",
              "name": "auctionTimeOut",
              "type": "uint256"
            },
            {
              "internalType": "uint256",
              "name": "deliveryLocation",
              "type": "uint256"
            },
            {
              "internalType": "enum EvChargingMarket.ContractState",
              "name": "state",
              "type": "uint8"
            }
          ],
          "internalType": "struct EvChargingMarket.Contract",
          "name": "",
          "type": "tuple"
        }
      ],
      "stateMutability": "view",
      "type": "function",
      "constant": true
    },
    {
      "inputs": [
        {
          "internalType": "uint256",
          "name": "_aucId",
          "type": "uint256"
        }
      ],
      "name": "getContractWinner",
      "outputs": [
        {
          "internalType": "address",
          "name": "",
          "type": "address"
        },
        {
          "internalType": "uint256",
          "name": "",
          "type": "uint256"
        }
      ],
      "stateMutability": "view",
      "type": "function",
      "constant": true
    },
    {
      "inputs": [],
      "name": "getNumberOfReq",
      "outputs": [
        {
          "internalType": "address[]",
          "name": "",
          "type": "address[]"
        },
        {
          "internalType": "uint256[]",
          "name": "",
          "type": "uint256[]"
        },
        {
          "internalType": "uint256[]",
          "name": "",
          "type": "uint256[]"
        },
        {
          "internalType": "uint256[]",
          "name": "",
          "type": "uint256[]"
        }
      ],
      "stateMutability": "view",
      "type": "function",
      "constant": true
    }
  ],
  "bytecode": "0x608060405234801561001057600080fd5b5033600460006101000a81548173ffffffffffffffffffffffffffffffffffffffff021916908373ffffffffffffffffffffffffffffffffffffffff160217905550612b2b806100616000396000f3fe608060405234801561001057600080fd5b506004361061010b5760003560e01c80637af3d55d116100a257806390af30871161007157806390af3087146102d55780639dcb0b48146102f6578063b5a5730d14610312578063c24d3fed1461032e578063c9295d7b1461034a5761010b565b80637af3d55d146102615780637d5224d31461027d5780638252ad9c146102995780638da5cb5b146102b75761010b565b806348caad68116100de57806348caad68146101b35780635e5c06e2146101cf5780636ebc8c861461020057806371790268146102305761010b565b8063236ed8f31461011057806335c6049c1461012c5780633ae7e5bc14610148578063474da79a14610178575b600080fd5b61012a60048036038101906101259190611ebb565b610366565b005b61014660048036038101906101419190611f20565b61049b565b005b610162600480360381019061015d9190611ebb565b61068e565b60405161016f9190611fd7565b60405180910390f35b610192600480360381019061018d9190611ebb565b6106bb565b6040516101aa9c9b9a99989796959493929190612051565b60405180910390f35b6101cd60048036038101906101c89190612137565b610782565b005b6101e960048036038101906101e4919061218a565b610af1565b6040516101f79291906121d0565b60405180910390f35b61021a60048036038101906102159190611ebb565b610b22565b604051610227919061232b565b60405180910390f35b61024a60048036038101906102459190611ebb565b610cb3565b604051610258929190612347565b60405180910390f35b61027b60048036038101906102769190611ebb565b610d0d565b005b6102976004803603810190610292919061218a565b610ecd565b005b6102a1610f2b565b6040516102ae9190612370565b60405180910390f35b6102bf610f31565b6040516102cc919061238b565b60405180910390f35b6102dd610f57565b6040516102ed9493929190612504565b60405180910390f35b610310600480360381019061030b919061259b565b6112b7565b005b61032c60048036038101906103279190611f20565b61152c565b005b610348600480360381019061034391906125db565b61171f565b005b610364600480360381019061035f919061261b565b611bcb565b005b806000600681111561037b5761037a611f60565b5b60016000838152602001908152602001600020600a0160009054906101000a900460ff1660068111156103b1576103b0611f60565b5b036103bb57600080fd5b813373ffffffffffffffffffffffffffffffffffffffff166001600083815260200190815260200160002060000160009054906101000a900473ffffffffffffffffffffffffffffffffffffffff1673ffffffffffffffffffffffffffffffffffffffff161461042a57600080fd5b60016002600085815260200190815260200160002060020160006101000a81548160ff0219169083600281111561046457610463611f60565b5b0217905550827ffd0589b9682733317d7f3b84a13bb57660efd49cad1cf97d6e04eec435ce605c60405160405180910390a2505050565b81600060068111156104b0576104af611f60565b5b60016000838152602001908152602001600020600a0160009054906101000a900460ff1660068111156104e6576104e5611f60565b5b036104f057600080fd5b826003600681111561050557610504611f60565b5b60016000838152602001908152602001600020600a0160009054906101000a900460ff16600681111561053b5761053a611f60565b5b1461054557600080fd5b82610582577fec5452a2831a91ad88134c09ec66704f429203233b302191424ae37b8696240e846040516105799190612370565b60405180910390a15b826001600086815260200190815260200160002060060160016101000a81548160ff0219169083151502179055506001600085815260200190815260200160002060060160009054906101000a900460ff161561068857610650846001600087815260200190815260200160002060000160009054906101000a900473ffffffffffffffffffffffffffffffffffffffff166001600088815260200190815260200160002060010160009054906101000a900473ffffffffffffffffffffffffffffffffffffffff16610782565b7fd1c91c601909e5d2b8805bf1297b9d4e8bc3cfc6c91b4e90d6b5f7835f637d7c8460405161067f9190612370565b60405180910390a15b50505050565b600060016000838152602001908152602001600020600a0160009054906101000a900460ff169050919050565b60016020528060005260406000206000915090508060000160009054906101000a900473ffffffffffffffffffffffffffffffffffffffff16908060010160009054906101000a900473ffffffffffffffffffffffffffffffffffffffff16908060020154908060030154908060040154908060050154908060060160009054906101000a900460ff16908060060160019054906101000a900460ff169080600701549080600801549080600901549080600a0160009054906101000a900460ff1690508c565b826001600082815260200190815260200160002060060160019054906101000a900460ff166107b057600080fd5b6001600082815260200190815260200160002060060160009054906101000a900460ff166107dd57600080fd5b600060016000868152602001908152602001600020600701549050600060016000878152602001908152602001600020600201549050600060016000888152602001908152602001600020600501548261083791906126c5565b9050600360008773ffffffffffffffffffffffffffffffffffffffff1673ffffffffffffffffffffffffffffffffffffffff1681526020019081526020016000206001016040518060a0016040528089815260200185815260200184815260200160011515815260200183815250908060018154018082558091505060019003906000526020600020906005020160009091909190915060008201518160000155602082015181600101556040820151816002015560608201518160030160006101000a81548160ff02191690831515021790555060808201518160040155505080600360008873ffffffffffffffffffffffffffffffffffffffff1673ffffffffffffffffffffffffffffffffffffffff168152602001908152602001600020600001600082825461096a919061271f565b92505081905550600360008673ffffffffffffffffffffffffffffffffffffffff1673ffffffffffffffffffffffffffffffffffffffff1681526020019081526020016000206001016040518060a0016040528089815260200185815260200184815260200160001515815260200183815250908060018154018082558091505060019003906000526020600020906005020160009091909190915060008201518160000155602082015181600101556040820151816002015560608201518160030160006101000a81548160ff02191690831515021790555060808201518160040155505080600360008773ffffffffffffffffffffffffffffffffffffffff1673ffffffffffffffffffffffffffffffffffffffff1681526020019081526020016000206000016000828254610aa291906127b3565b92505081905550600660016000898152602001908152602001600020600a0160006101000a81548160ff02191690836006811115610ae357610ae2611f60565b5b021790555050505050505050565b60036020528060005260406000206000915090508060000154908060020160009054906101000a900460ff16905082565b610b2a611ddd565b60016000838152602001908152602001600020604051806101800160405290816000820160009054906101000a900473ffffffffffffffffffffffffffffffffffffffff1673ffffffffffffffffffffffffffffffffffffffff1673ffffffffffffffffffffffffffffffffffffffff1681526020016001820160009054906101000a900473ffffffffffffffffffffffffffffffffffffffff1673ffffffffffffffffffffffffffffffffffffffff1673ffffffffffffffffffffffffffffffffffffffff168152602001600282015481526020016003820154815260200160048201548152602001600582015481526020016006820160009054906101000a900460ff161515151581526020016006820160019054906101000a900460ff16151515158152602001600782015481526020016008820154815260200160098201548152602001600a820160009054906101000a900460ff166006811115610c9657610c95611f60565b5b6006811115610ca857610ca7611f60565b5b815250509050919050565b6000806001600084815260200190815260200160002060010160009054906101000a900473ffffffffffffffffffffffffffffffffffffffff16600160008581526020019081526020016000206004015491509150915091565b8060006006811115610d2257610d21611f60565b5b60016000838152602001908152602001600020600a0160009054906101000a900460ff166006811115610d5857610d57611f60565b5b03610d6257600080fd5b813373ffffffffffffffffffffffffffffffffffffffff166001600083815260200190815260200160002060000160009054906101000a900473ffffffffffffffffffffffffffffffffffffffff1673ffffffffffffffffffffffffffffffffffffffff1614610dd157600080fd5b600280600085815260200190815260200160002060020160006101000a81548160ff02191690836002811115610e0a57610e09611f60565b5b0217905550600360016000858152602001908152602001600020600a0160006101000a81548160ff02191690836006811115610e4957610e48611f60565b5b02179055506001600084815260200190815260200160002060010160009054906101000a900473ffffffffffffffffffffffffffffffffffffffff1673ffffffffffffffffffffffffffffffffffffffff16837f05daec5253c71d1b1b83aa1cd22e3fc88805f31350802a376d966cbb8d4c72f560405160405180910390a3505050565b6001600360008373ffffffffffffffffffffffffffffffffffffffff1673ffffffffffffffffffffffffffffffffffffffff16815260200190815260200160002060020160006101000a81548160ff02191690831515021790555050565b60005481565b600460009054906101000a900473ffffffffffffffffffffffffffffffffffffffff1681565b6060806060806000805b600054811015610fdb57600280811115610f7e57610f7d611f60565b5b6002600083815260200190815260200160002060020160009054906101000a900460ff166002811115610fb457610fb3611f60565b5b14610fc8578180610fc490612847565b9250505b8080610fd390612847565b915050610f61565b5060008167ffffffffffffffff811115610ff857610ff761288f565b5b6040519080825280602002602001820160405280156110265781602001602082028036833780820191505090505b50905060008267ffffffffffffffff8111156110455761104461288f565b5b6040519080825280602002602001820160405280156110735781602001602082028036833780820191505090505b50905060008367ffffffffffffffff8111156110925761109161288f565b5b6040519080825280602002602001820160405280156110c05781602001602082028036833780820191505090505b50905060008467ffffffffffffffff8111156110df576110de61288f565b5b60405190808252806020026020018201604052801561110d5781602001602082028036833780820191505090505b5090506000805b60005481101561129e5760028081111561113157611130611f60565b5b6002600083815260200190815260200160002060020160009054906101000a900460ff16600281111561116757611166611f60565b5b1461128b576001600082815260200190815260200160002060000160009054906101000a900473ffffffffffffffffffffffffffffffffffffffff168683815181106111b6576111b56128be565b5b602002602001019073ffffffffffffffffffffffffffffffffffffffff16908173ffffffffffffffffffffffffffffffffffffffff1681525050600160008281526020019081526020016000206003015485838151811061121a576112196128be565b5b60200260200101818152505060016000828152602001908152602001600020600201548483815181106112505761124f6128be565b5b602002602001018181525050808383815181106112705761126f6128be565b5b602002602001018181525050818061128790612847565b9250505b808061129690612847565b915050611114565b5084848484995099509950995050505050505090919293565b81600060068111156112cc576112cb611f60565b5b60016000838152602001908152602001600020600a0160009054906101000a900460ff16600681111561130257611301611f60565b5b0361130c57600080fd5b826000600281111561132157611320611f60565b5b6002600083815260200190815260200160002060020160009054906101000a900460ff16600281111561135757611356611f60565b5b1461136157600080fd5b8360028081111561137557611374611f60565b5b6002600083815260200190815260200160002060020160009054906101000a900460ff1660028111156113ab576113aa611f60565b5b036113b557600080fd5b60405180604001604052803373ffffffffffffffffffffffffffffffffffffffff168152602001858152506002600087815260200190815260200160002060010160003373ffffffffffffffffffffffffffffffffffffffff1673ffffffffffffffffffffffffffffffffffffffff16815260200190815260200160002060008201518160000160006101000a81548173ffffffffffffffffffffffffffffffffffffffff021916908373ffffffffffffffffffffffffffffffffffffffff160217905550602082015181600101559050506000600260008781526020019081526020016000206000015490506002600087815260200190815260200160002060000160008154809291906114c990612847565b9190505560026000888152602001908152602001600020600001819055507f1480adfde6800b830f0fb4837d9964ee2c518a94e3bd695b87bddcbf5d0cbbc03387878460405161151c94939291906128fc565b60405180910390a1505050505050565b816000600681111561154157611540611f60565b5b60016000838152602001908152602001600020600a0160009054906101000a900460ff16600681111561157757611576611f60565b5b0361158157600080fd5b826003600681111561159657611595611f60565b5b60016000838152602001908152602001600020600a0160009054906101000a900460ff1660068111156115cc576115cb611f60565b5b146115d657600080fd5b82611613577fec5452a2831a91ad88134c09ec66704f429203233b302191424ae37b8696240e8460405161160a9190612370565b60405180910390a15b826001600086815260200190815260200160002060060160006101000a81548160ff0219169083151502179055506001600085815260200190815260200160002060060160019054906101000a900460ff1615611719576116e1846001600087815260200190815260200160002060000160009054906101000a900473ffffffffffffffffffffffffffffffffffffffff166001600088815260200190815260200160002060010160009054906101000a900473ffffffffffffffffffffffffffffffffffffffff16610782565b7fd1c91c601909e5d2b8805bf1297b9d4e8bc3cfc6c91b4e90d6b5f7835f637d7c846040516117109190612370565b60405180910390a15b50505050565b816000600681111561173457611733611f60565b5b60016000838152602001908152602001600020600a0160009054906101000a900460ff16600681111561176a57611769611f60565b5b0361177457600080fd5b826001600281111561178957611788611f60565b5b6002600083815260200190815260200160002060020160009054906101000a900460ff1660028111156117bf576117be611f60565b5b146117c957600080fd5b836002808111156117dd576117dc611f60565b5b6002600083815260200190815260200160002060020160009054906101000a900460ff16600281111561181357611812611f60565b5b0361181d57600080fd5b8360405160200161182e9190612962565b604051602081830303815290604052805190602001206002600087815260200190815260200160002060010160003373ffffffffffffffffffffffffffffffffffffffff1673ffffffffffffffffffffffffffffffffffffffff1681526020019081526020016000206001015414611906577f45053e0ee27acfd6c3624ffe293ea5ac2d7e6593e1db82a23d8573ecfbfb37db3385866040516020016118d49190612962565b604051602081830303815290604052805190602001206040516118f99392919061297d565b60405180910390a1611bc4565b6002600681111561191a57611919611f60565b5b60016000878152602001908152602001600020600a0160009054906101000a900460ff1660068111156119505761194f611f60565b5b03611a97576001600086815260200190815260200160002060040154841015611a575760016000868152602001908152602001600020600401546001600087815260200190815260200160002060050181905550836001600087815260200190815260200160002060040181905550336001600087815260200190815260200160002060010160006101000a81548173ffffffffffffffffffffffffffffffffffffffff021916908373ffffffffffffffffffffffffffffffffffffffff1602179055507f95b9a1d69ecb2be7e31caa8f3d650b70dc0c57864577d342cbd0b46f526f7de83386866000604051611a4a94939291906129f9565b60405180910390a1611a92565b6001600086815260200190815260200160002060050154841015611a91578360016000878152602001908152602001600020600501819055505b5b611bc3565b6001600086815260200190815260200160002060030154841115611aba57600080fd5b836001600087815260200190815260200160002060040181905550836001600087815260200190815260200160002060050181905550336001600087815260200190815260200160002060010160006101000a81548173ffffffffffffffffffffffffffffffffffffffff021916908373ffffffffffffffffffffffffffffffffffffffff160217905550600260016000878152602001908152602001600020600a0160006101000a81548160ff02191690836006811115611b7f57611b7e611f60565b5b02179055507f9d868d83592ba4334f284a6e2431fb93ce33c74de14a02fc570f08934848df283386866000604051611bba94939291906129f9565b60405180910390a15b5b5050505050565b6000806000815480929190611bdf90612847565b919050559050611bf433828888888888611bfc565b505050505050565b866001600088815260200190815260200160002060000160006101000a81548173ffffffffffffffffffffffffffffffffffffffff021916908373ffffffffffffffffffffffffffffffffffffffff1602179055508460016000888152602001908152602001600020600201819055508360016000888152602001908152602001600020600301819055508260016000888152602001908152602001600020600701819055508142611cae9190612a3e565b60016000888152602001908152602001600020600801819055508060016000888152602001908152602001600020600901819055506001806000888152602001908152602001600020600a0160006101000a81548160ff02191690836006811115611d1c57611d1b611f60565b5b021790555060006002600088815260200190815260200160002060020160006101000a81548160ff02191690836002811115611d5b57611d5a611f60565b5b0217905550600060026000888152602001908152602001600020600001819055508673ffffffffffffffffffffffffffffffffffffffff167fcc362c2593671af314a8db463f7711b926973faf57d5a992b498afe2b8d2aea9878688878787604051611dcc96959493929190612a94565b60405180910390a250505050505050565b604051806101800160405280600073ffffffffffffffffffffffffffffffffffffffff168152602001600073ffffffffffffffffffffffffffffffffffffffff1681526020016000815260200160008152602001600081526020016000815260200160001515815260200160001515815260200160008152602001600081526020016000815260200160006006811115611e7a57611e79611f60565b5b81525090565b600080fd5b6000819050919050565b611e9881611e85565b8114611ea357600080fd5b50565b600081359050611eb581611e8f565b92915050565b600060208284031215611ed157611ed0611e80565b5b6000611edf84828501611ea6565b91505092915050565b60008115159050919050565b611efd81611ee8565b8114611f0857600080fd5b50565b600081359050611f1a81611ef4565b92915050565b60008060408385031215611f3757611f36611e80565b5b6000611f4585828601611ea6565b9250506020611f5685828601611f0b565b9150509250929050565b7f4e487b7100000000000000000000000000000000000000000000000000000000600052602160045260246000fd5b60078110611fa057611f9f611f60565b5b50565b6000819050611fb182611f8f565b919050565b6000611fc182611fa3565b9050919050565b611fd181611fb6565b82525050565b6000602082019050611fec6000830184611fc8565b92915050565b600073ffffffffffffffffffffffffffffffffffffffff82169050919050565b600061201d82611ff2565b9050919050565b61202d81612012565b82525050565b61203c81611e85565b82525050565b61204b81611ee8565b82525050565b600061018082019050612067600083018f612024565b612074602083018e612024565b612081604083018d612033565b61208e606083018c612033565b61209b608083018b612033565b6120a860a083018a612033565b6120b560c0830189612042565b6120c260e0830188612042565b6120d0610100830187612033565b6120de610120830186612033565b6120ec610140830185612033565b6120fa610160830184611fc8565b9d9c50505050505050505050505050565b61211481612012565b811461211f57600080fd5b50565b6000813590506121318161210b565b92915050565b6000806000606084860312156121505761214f611e80565b5b600061215e86828701611ea6565b935050602061216f86828701612122565b925050604061218086828701612122565b9150509250925092565b6000602082840312156121a05761219f611e80565b5b60006121ae84828501612122565b91505092915050565b6000819050919050565b6121ca816121b7565b82525050565b60006040820190506121e560008301856121c1565b6121f26020830184612042565b9392505050565b61220281612012565b82525050565b61221181611e85565b82525050565b61222081611ee8565b82525050565b61222f81611fb6565b82525050565b6101808201600082015161224c60008501826121f9565b50602082015161225f60208501826121f9565b5060408201516122726040850182612208565b5060608201516122856060850182612208565b5060808201516122986080850182612208565b5060a08201516122ab60a0850182612208565b5060c08201516122be60c0850182612217565b5060e08201516122d160e0850182612217565b506101008201516122e6610100850182612208565b506101208201516122fb610120850182612208565b50610140820151612310610140850182612208565b50610160820151612325610160850182612226565b50505050565b6000610180820190506123416000830184612235565b92915050565b600060408201905061235c6000830185612024565b6123696020830184612033565b9392505050565b60006020820190506123856000830184612033565b92915050565b60006020820190506123a06000830184612024565b92915050565b600081519050919050565b600082825260208201905092915050565b6000819050602082019050919050565b60006123de83836121f9565b60208301905092915050565b6000602082019050919050565b6000612402826123a6565b61240c81856123b1565b9350612417836123c2565b8060005b8381101561244857815161242f88826123d2565b975061243a836123ea565b92505060018101905061241b565b5085935050505092915050565b600081519050919050565b600082825260208201905092915050565b6000819050602082019050919050565b600061248d8383612208565b60208301905092915050565b6000602082019050919050565b60006124b182612455565b6124bb8185612460565b93506124c683612471565b8060005b838110156124f75781516124de8882612481565b97506124e983612499565b9250506001810190506124ca565b5085935050505092915050565b6000608082019050818103600083015261251e81876123f7565b9050818103602083015261253281866124a6565b9050818103604083015261254681856124a6565b9050818103606083015261255a81846124a6565b905095945050505050565b6000819050919050565b61257881612565565b811461258357600080fd5b50565b6000813590506125958161256f565b92915050565b600080604083850312156125b2576125b1611e80565b5b60006125c085828601611ea6565b92505060206125d185828601612586565b9150509250929050565b600080604083850312156125f2576125f1611e80565b5b600061260085828601611ea6565b925050602061261185828601611ea6565b9150509250929050565b600080600080600060a0868803121561263757612636611e80565b5b600061264588828901611ea6565b955050602061265688828901611ea6565b945050604061266788828901611ea6565b935050606061267888828901611ea6565b925050608061268988828901611ea6565b9150509295509295909350565b7f4e487b7100000000000000000000000000000000000000000000000000000000600052601160045260246000fd5b60006126d082611e85565b91506126db83611e85565b9250817fffffffffffffffffffffffffffffffffffffffffffffffffffffffffffffffff048311821515161561271457612713612696565b5b828202905092915050565b600061272a826121b7565b9150612735836121b7565b9250827f8000000000000000000000000000000000000000000000000000000000000000018212600084121516156127705761276f612696565b5b827f7fffffffffffffffffffffffffffffffffffffffffffffffffffffffffffffff0182136000841216156127a8576127a7612696565b5b828203905092915050565b60006127be826121b7565b91506127c9836121b7565b9250817f7fffffffffffffffffffffffffffffffffffffffffffffffffffffffffffffff0383136000831215161561280457612803612696565b5b817f800000000000000000000000000000000000000000000000000000000000000003831260008312161561283c5761283b612696565b5b828201905092915050565b600061285282611e85565b91507fffffffffffffffffffffffffffffffffffffffffffffffffffffffffffffffff820361288457612883612696565b5b600182019050919050565b7f4e487b7100000000000000000000000000000000000000000000000000000000600052604160045260246000fd5b7f4e487b7100000000000000000000000000000000000000000000000000000000600052603260045260246000fd5b6128f681612565565b82525050565b60006080820190506129116000830187612024565b61291e6020830186612033565b61292b60408301856128ed565b6129386060830184612033565b95945050505050565b6000819050919050565b61295c61295782611e85565b612941565b82525050565b600061296e828461294b565b60208201915081905092915050565b60006060820190506129926000830186612024565b61299f6020830185612033565b6129ac60408301846128ed565b949350505050565b6000819050919050565b6000819050919050565b60006129e36129de6129d9846129b4565b6129be565b611e85565b9050919050565b6129f3816129c8565b82525050565b6000608082019050612a0e6000830187612024565b612a1b6020830186612033565b612a286040830185612033565b612a3560608301846129ea565b95945050505050565b6000612a4982611e85565b9150612a5483611e85565b9250827fffffffffffffffffffffffffffffffffffffffffffffffffffffffffffffffff03821115612a8957612a88612696565b5b828201905092915050565b600060c082019050612aa96000830189612033565b612ab66020830188612033565b612ac36040830187612033565b612ad06060830186612033565b612add6080830185612033565b612aea60a0830184612033565b97965050505050505056fea26469706673582212208e82abfd8ae06d687fd4d3489cf2876478562a05225775ac97444e1937f0270964736f6c634300080d0033",
  "immutableReferences": {},
  "source": "// SPDX-License-Identifier: MIT\r\npragma solidity >=0.4.22 <0.9.0;\r\npragma experimental ABIEncoderV2;\r\n\r\ncontract EvChargingMarket {\r\n    enum ContractState {\r\n        NotCreated,\r\n        Created,\r\n        HasOffer,\r\n        Established,\r\n        ReadyForPayement,\r\n        ReportNotOk,\r\n        Closed\r\n    }\r\n    enum AuctionState {\r\n        Created,\r\n        Closed,\r\n        RevealEnd\r\n    }\r\n\r\n    struct Payment {\r\n        uint256 bidId;\r\n        uint256 date;\r\n        uint256 energyAmount;\r\n        bool toPay; //or toReceive\r\n        uint256 total;\r\n    }\r\n\r\n    struct SealedBid {\r\n        address bidder;\r\n        bytes32 bid;\r\n    }\r\n\r\n    struct Account {\r\n        // User account\r\n        int256 balance;\r\n        Payment[] payments;\r\n        bool isUser;\r\n    }\r\n\r\n    struct Auction {\r\n        uint256 nbBid;\r\n        // SealedBid[] bids;\r\n        mapping(address => SealedBid) bids;\r\n        AuctionState state;\r\n    }\r\n\r\n    struct Contract {\r\n        address buyer; // EV address\r\n        address seller; // Winner EP address\r\n        uint256 amount;\r\n        uint256 buyerMaxPrice;\r\n        uint256 currentPrice;\r\n        uint256 secondLowestPrice;\r\n        bool buyerMeterReport;\r\n        bool sellerMeterReport;\r\n        uint256 deliveryTime;\r\n        uint256 auctionTimeOut;\r\n        uint256 deliveryLocation;\r\n        ContractState state;\r\n    }\r\n\r\n    modifier auctionNotClosed(uint256 _aucId) {\r\n        require(auctions[_aucId].state == AuctionState.Created);\r\n        _;\r\n    }\r\n\r\n    modifier auctionClosed(uint256 _aucId) {\r\n        require(auctions[_aucId].state == AuctionState.Closed);\r\n        _;\r\n    }\r\n\r\n    modifier revealNotEnded(uint256 _aucId) {\r\n        require(auctions[_aucId].state != AuctionState.RevealEnd);\r\n        _;\r\n    }\r\n\r\n    modifier auctionExisit(uint256 _aucId) {\r\n        require(contracts[_aucId].state != ContractState.NotCreated);\r\n        _;\r\n    }\r\n\r\n    modifier auctionTimeOut(uint256 _aucId) {\r\n        require(contracts[_aucId].auctionTimeOut > block.timestamp);\r\n        _;\r\n    }\r\n\r\n    modifier contractEstablished(uint256 _aucId) {\r\n        require(contracts[_aucId].state == ContractState.Established);\r\n        _;\r\n    }\r\n\r\n    modifier reportsOk(uint256 _aucId) {\r\n        require(contracts[_aucId].sellerMeterReport);\r\n        require(contracts[_aucId].buyerMeterReport);\r\n        _;\r\n    }\r\n\r\n    modifier buyerOnly(uint256 _aucId) {\r\n        require(contracts[_aucId].buyer == msg.sender);\r\n        _;\r\n    }\r\n\r\n    modifier sellerOnly(uint256 _aucId) {\r\n        require(contracts[_aucId].seller == msg.sender);\r\n        _;\r\n    }\r\n\r\n    modifier accountExist(address _user) {\r\n        require(accounts[_user].isUser);\r\n        _;\r\n    }\r\n\r\n    uint256 public totalAuction;\r\n\r\n    mapping(uint256 => Contract) public contracts;\r\n    mapping(uint256 => Auction) auctions;\r\n    mapping(address => Account) public accounts;\r\n\r\n    address public owner;\r\n\r\n    constructor() public {\r\n        owner = msg.sender;\r\n    }\r\n\r\n    event LogReqCreated(\r\n        address indexed buyer,\r\n        uint256 _aucId,\r\n        uint256 _maxPrice,\r\n        uint256 _amount,\r\n        uint256 _time,\r\n        uint256 _auctionTime,\r\n        uint256 _location\r\n    );\r\n    event LowestBidDecreased(\r\n        address _seller,\r\n        uint256 _aucId,\r\n        uint256 _price,\r\n        uint256 _amount\r\n    );\r\n    event FirstOfferAccepted(\r\n        address _seller,\r\n        uint256 _aucId,\r\n        uint256 _price,\r\n        uint256 _amount\r\n    );\r\n    event ContractEstablished(uint256 _aucId, address _buyer, address _seller);\r\n    event ReportOk(uint256 _aucId);\r\n    event ReportNotOk(uint256 _aucId);\r\n    event SealedBidReceived(\r\n        address seller,\r\n        uint256 _aucId,\r\n        bytes32 _sealedBid,\r\n        uint256 _bidId\r\n    );\r\n    event BidNotCorrectelyRevealed(\r\n        address bidder,\r\n        uint256 _price,\r\n        bytes32 _sealedBid\r\n    );\r\n    event ActionClosed(uint256 indexed _aucId);\r\n    event EndReveal(uint256 indexed _aucId, address indexed winner);\r\n\r\n    function createReq(\r\n        uint256 _amount,\r\n        uint256 _price,\r\n        uint256 _time,\r\n        uint256 _auctionTime,\r\n        uint256 _location\r\n    ) public {\r\n        uint256 aucId = totalAuction++;\r\n        storeAndLogNewReq(\r\n            msg.sender,\r\n            aucId,\r\n            _amount,\r\n            _price,\r\n            _time,\r\n            _auctionTime,\r\n            _location\r\n        );\r\n    }\r\n\r\n    function makeSealedOffer(uint256 _aucId, bytes32 _sealedBid)\r\n        public\r\n        auctionExisit(_aucId)\r\n        auctionNotClosed(_aucId)\r\n        revealNotEnded(_aucId)\r\n    {\r\n        auctions[_aucId].bids[msg.sender] = SealedBid(msg.sender, _sealedBid);\r\n        uint256 bidId = auctions[_aucId].nbBid;\r\n        auctions[_aucId].nbBid = auctions[_aucId].nbBid++;\r\n        emit SealedBidReceived(msg.sender, _aucId, _sealedBid, bidId);\r\n    }\r\n\r\n    function closeAuction(uint256 _aucId)\r\n        public\r\n        auctionExisit(_aucId)\r\n        buyerOnly(_aucId)\r\n    //to do: conractNotEstablished(_aucId)\r\n    //auctionTimeOut(_aucId)\r\n    {\r\n        auctions[_aucId].state = AuctionState.Closed;\r\n        emit ActionClosed(_aucId);\r\n    }\r\n\r\n    function endReveal(uint256 _aucId)\r\n        public\r\n        auctionExisit(_aucId)\r\n        buyerOnly(_aucId)\r\n    //to do: conractNotEstablished(_aucId)\r\n    //auctionTimeOut(_aucId)\r\n    {\r\n        auctions[_aucId].state = AuctionState.RevealEnd;\r\n        contracts[_aucId].state = ContractState.Established;\r\n        emit EndReveal(_aucId, contracts[_aucId].seller);\r\n    }\r\n\r\n    function revealOffer(uint256 _aucId, uint256 _price)\r\n        public\r\n        auctionExisit(_aucId)\r\n        auctionClosed(_aucId)\r\n        revealNotEnded(_aucId)\r\n    {\r\n        if (\r\n            auctions[_aucId].bids[msg.sender].bid !=\r\n            keccak256(abi.encodePacked(_price))\r\n        ) {\r\n            emit BidNotCorrectelyRevealed(\r\n                msg.sender,\r\n                _price,\r\n                keccak256(abi.encodePacked(_price))\r\n            );\r\n            return;\r\n        }\r\n        if (contracts[_aucId].state == ContractState.HasOffer) {\r\n            if (_price < contracts[_aucId].currentPrice) {\r\n                contracts[_aucId].secondLowestPrice = contracts[_aucId]\r\n                    .currentPrice;\r\n                contracts[_aucId].currentPrice = _price;\r\n                contracts[_aucId].seller = msg.sender;\r\n                emit LowestBidDecreased(msg.sender, _aucId, _price, 0);\r\n            } else {\r\n                if (_price < contracts[_aucId].secondLowestPrice) {\r\n                    contracts[_aucId].secondLowestPrice = _price;\r\n                }\r\n            }\r\n        } else {\r\n            require(_price <= contracts[_aucId].buyerMaxPrice);\r\n            contracts[_aucId].currentPrice = _price;\r\n            contracts[_aucId].secondLowestPrice = _price;\r\n            contracts[_aucId].seller = msg.sender;\r\n            contracts[_aucId].state = ContractState.HasOffer;\r\n            emit FirstOfferAccepted(msg.sender, _aucId, _price, 0);\r\n        }\r\n    }\r\n\r\n    function setBuyerMeterReport(uint256 _aucId, bool _state)\r\n        public\r\n        auctionExisit(_aucId)\r\n        contractEstablished(_aucId)\r\n    {\r\n        if (!_state) {\r\n            emit ReportNotOk(_aucId);\r\n        }\r\n        contracts[_aucId].buyerMeterReport = _state;\r\n        if (contracts[_aucId].sellerMeterReport) {\r\n            updateBalance(\r\n                _aucId,\r\n                contracts[_aucId].buyer,\r\n                contracts[_aucId].seller\r\n            );\r\n            emit ReportOk(_aucId);\r\n        }\r\n    }\r\n\r\n    function setSellerMeterReport(uint256 _aucId, bool _state)\r\n        public\r\n        auctionExisit(_aucId)\r\n        contractEstablished(_aucId)\r\n    {\r\n        if (!_state) {\r\n            emit ReportNotOk(_aucId);\r\n        }\r\n        contracts[_aucId].sellerMeterReport = _state;\r\n        if (contracts[_aucId].buyerMeterReport) {\r\n            updateBalance(\r\n                _aucId,\r\n                contracts[_aucId].buyer,\r\n                contracts[_aucId].seller\r\n            );\r\n            emit ReportOk(_aucId);\r\n        }\r\n    }\r\n\r\n    function updateBalance(\r\n        uint256 _aucId,\r\n        address _buyer,\r\n        address _seller\r\n    ) public reportsOk(_aucId) {\r\n        uint256 date = contracts[_aucId].deliveryTime;\r\n        uint256 amount = contracts[_aucId].amount;\r\n        uint256 amounToPay = amount * contracts[_aucId].secondLowestPrice;\r\n        accounts[_buyer].payments.push(\r\n            Payment(_aucId, date, amount, true, amounToPay)\r\n        );\r\n        accounts[_buyer].balance -= int256(amounToPay);\r\n        accounts[_seller].payments.push(\r\n            Payment(_aucId, date, amount, false, amounToPay)\r\n        );\r\n        accounts[_seller].balance += int256(amounToPay);\r\n        contracts[_aucId].state = ContractState.Closed;\r\n    }\r\n\r\n    function registerNewUser(address _user) public {\r\n        accounts[_user].isUser = true;\r\n    }\r\n\r\n    function getReq(uint256 _index) public view returns (ContractState) {\r\n        return (contracts[_index].state);\r\n    }\r\n\r\n    function getContract(uint256 _index) public view returns (Contract memory) {\r\n        return contracts[_index];\r\n    }\r\n\r\n    function getContractWinner(uint256 _aucId)\r\n        public\r\n        view\r\n        returns (address, uint256)\r\n    {\r\n        return (contracts[_aucId].seller, contracts[_aucId].currentPrice);\r\n    }\r\n\r\n    function getNumberOfReq()\r\n        public\r\n        view\r\n        returns (\r\n            address[] memory,\r\n            uint256[] memory,\r\n            uint256[] memory,\r\n            uint256[] memory\r\n        )\r\n    {\r\n        uint256 count = 0;\r\n        for (uint256 i = 0; i < totalAuction; i++) {\r\n            if (auctions[i].state != AuctionState.RevealEnd) {\r\n                count++;\r\n            }\r\n        }\r\n\r\n        address[] memory returnBuyer = new address[](count);\r\n        uint256[] memory returnPrice = new uint256[](count);\r\n        uint256[] memory returnAmount = new uint256[](count);\r\n        uint256[] memory returnAucID = new uint256[](count);\r\n\r\n        uint256 j = 0;\r\n        for (uint256 i = 0; i < totalAuction; i++) {\r\n            if (auctions[i].state != AuctionState.RevealEnd) {\r\n                returnBuyer[j] = contracts[i].buyer;\r\n                returnPrice[j] = contracts[i].buyerMaxPrice;\r\n                returnAmount[j] = contracts[i].amount;\r\n                returnAucID[j] = i;\r\n                j++;\r\n            }\r\n        }\r\n\r\n        return (returnBuyer, returnPrice, returnAmount, returnAucID);\r\n    }\r\n\r\n    function storeAndLogNewReq(\r\n        address _buyer,\r\n        uint256 _id,\r\n        uint256 _amount,\r\n        uint256 _price,\r\n        uint256 _time,\r\n        uint256 _auctionTime,\r\n        uint256 _location\r\n    ) private {\r\n        contracts[_id].buyer = _buyer;\r\n        contracts[_id].amount = _amount;\r\n        contracts[_id].buyerMaxPrice = _price;\r\n        contracts[_id].deliveryTime = _time;\r\n        contracts[_id].auctionTimeOut = block.timestamp + _auctionTime;\r\n        contracts[_id].deliveryLocation = _location;\r\n        contracts[_id].state = ContractState.Created;\r\n        auctions[_id].state = AuctionState.Created;\r\n        auctions[_id].nbBid = 0;\r\n        emit LogReqCreated(\r\n            _buyer,\r\n            _id,\r\n            _price,\r\n            _amount,\r\n            _time,\r\n            _auctionTime,\r\n            _location\r\n        );\r\n    }\r\n}\r\n",
  "sourcePath": "D:\\licenta\\contracts\\EnergyTradingSecondPriceAuction.sol",
  "compiler": {
    "name": "solc",
    "version": "0.8.13+commit.abaa5c0e.Emscripten.clang"
  },
  "schemaVersion": "3.4.6",
  "updatedAt": "2022-07-02T19:26:56.776Z",
  "networkType": "ethereum",
  "devdoc": {
    "kind": "dev",
    "methods": {},
    "version": 1
  },
  "userdoc": {
    "kind": "user",
    "methods": {},
    "version": 1
  }
}