{
  "contractName": "EvChargingMarket",
  "abi": [
    {
      "inputs": [],
      "payable": false,
      "stateMutability": "nonpayable",
      "type": "constructor"
    },
    {
      "anonymous": false,
      "inputs": [
        {
          "indexed": true,
          "internalType": "uint256",
          "name": "_aucId",
          "type": "uint256"
        }
      ],
      "name": "ActionClosed",
      "type": "event"
    },
    {
      "anonymous": false,
      "inputs": [
        {
          "indexed": false,
          "internalType": "address",
          "name": "bidder",
          "type": "address"
        },
        {
          "indexed": false,
          "internalType": "uint256",
          "name": "_price",
          "type": "uint256"
        },
        {
          "indexed": false,
          "internalType": "bytes32",
          "name": "_sealedBid",
          "type": "bytes32"
        }
      ],
      "name": "BidNotCorrectelyRevealed",
      "type": "event"
    },
    {
      "anonymous": false,
      "inputs": [
        {
          "indexed": false,
          "internalType": "uint256",
          "name": "_aucId",
          "type": "uint256"
        },
        {
          "indexed": false,
          "internalType": "address",
          "name": "_buyer",
          "type": "address"
        },
        {
          "indexed": false,
          "internalType": "address",
          "name": "_seller",
          "type": "address"
        }
      ],
      "name": "ContractEstablished",
      "type": "event"
    },
    {
      "anonymous": false,
      "inputs": [
        {
          "indexed": true,
          "internalType": "uint256",
          "name": "_aucId",
          "type": "uint256"
        },
        {
          "indexed": true,
          "internalType": "address",
          "name": "winner",
          "type": "address"
        }
      ],
      "name": "EndReveal",
      "type": "event"
    },
    {
      "anonymous": false,
      "inputs": [
        {
          "indexed": false,
          "internalType": "address",
          "name": "_seller",
          "type": "address"
        },
        {
          "indexed": false,
          "internalType": "uint256",
          "name": "_aucId",
          "type": "uint256"
        },
        {
          "indexed": false,
          "internalType": "uint256",
          "name": "_price",
          "type": "uint256"
        },
        {
          "indexed": false,
          "internalType": "uint256",
          "name": "_amount",
          "type": "uint256"
        }
      ],
      "name": "FirstOfferAccepted",
      "type": "event"
    },
    {
      "anonymous": false,
      "inputs": [
        {
          "indexed": true,
          "internalType": "address",
          "name": "buyer",
          "type": "address"
        },
        {
          "indexed": false,
          "internalType": "uint256",
          "name": "_aucId",
          "type": "uint256"
        },
        {
          "indexed": false,
          "internalType": "uint256",
          "name": "_maxPrice",
          "type": "uint256"
        },
        {
          "indexed": false,
          "internalType": "uint256",
          "name": "_amount",
          "type": "uint256"
        },
        {
          "indexed": false,
          "internalType": "uint256",
          "name": "_time",
          "type": "uint256"
        },
        {
          "indexed": false,
          "internalType": "uint256",
          "name": "_auctionTime",
          "type": "uint256"
        },
        {
          "indexed": false,
          "internalType": "uint256",
          "name": "_location",
          "type": "uint256"
        }
      ],
      "name": "LogReqCreated",
      "type": "event"
    },
    {
      "anonymous": false,
      "inputs": [
        {
          "indexed": false,
          "internalType": "address",
          "name": "_seller",
          "type": "address"
        },
        {
          "indexed": false,
          "internalType": "uint256",
          "name": "_aucId",
          "type": "uint256"
        },
        {
          "indexed": false,
          "internalType": "uint256",
          "name": "_price",
          "type": "uint256"
        },
        {
          "indexed": false,
          "internalType": "uint256",
          "name": "_amount",
          "type": "uint256"
        }
      ],
      "name": "LowestBidDecreased",
      "type": "event"
    },
    {
      "anonymous": false,
      "inputs": [
        {
          "indexed": false,
          "internalType": "uint256",
          "name": "_aucId",
          "type": "uint256"
        }
      ],
      "name": "ReportNotOk",
      "type": "event"
    },
    {
      "anonymous": false,
      "inputs": [
        {
          "indexed": false,
          "internalType": "uint256",
          "name": "_aucId",
          "type": "uint256"
        }
      ],
      "name": "ReportOk",
      "type": "event"
    },
    {
      "anonymous": false,
      "inputs": [
        {
          "indexed": false,
          "internalType": "address",
          "name": "seller",
          "type": "address"
        },
        {
          "indexed": false,
          "internalType": "uint256",
          "name": "_aucId",
          "type": "uint256"
        },
        {
          "indexed": false,
          "internalType": "bytes32",
          "name": "_sealedBid",
          "type": "bytes32"
        },
        {
          "indexed": false,
          "internalType": "uint256",
          "name": "_bidId",
          "type": "uint256"
        }
      ],
      "name": "SealedBidReceived",
      "type": "event"
    },
    {
      "constant": true,
      "inputs": [
        {
          "internalType": "address",
          "name": "",
          "type": "address"
        }
      ],
      "name": "accounts",
      "outputs": [
        {
          "internalType": "int256",
          "name": "balance",
          "type": "int256"
        },
        {
          "internalType": "bool",
          "name": "isUser",
          "type": "bool"
        }
      ],
      "payable": false,
      "stateMutability": "view",
      "type": "function"
    },
    {
      "constant": true,
      "inputs": [
        {
          "internalType": "uint256",
          "name": "",
          "type": "uint256"
        }
      ],
      "name": "contracts",
      "outputs": [
        {
          "internalType": "address",
          "name": "buyer",
          "type": "address"
        },
        {
          "internalType": "address",
          "name": "seller",
          "type": "address"
        },
        {
          "internalType": "uint256",
          "name": "amount",
          "type": "uint256"
        },
        {
          "internalType": "uint256",
          "name": "buyerMaxPrice",
          "type": "uint256"
        },
        {
          "internalType": "uint256",
          "name": "currentPrice",
          "type": "uint256"
        },
        {
          "internalType": "uint256",
          "name": "secondLowestPrice",
          "type": "uint256"
        },
        {
          "internalType": "bool",
          "name": "buyerMeterReport",
          "type": "bool"
        },
        {
          "internalType": "bool",
          "name": "sellerMeterReport",
          "type": "bool"
        },
        {
          "internalType": "uint256",
          "name": "deliveryTime",
          "type": "uint256"
        },
        {
          "internalType": "uint256",
          "name": "auctionTimeOut",
          "type": "uint256"
        },
        {
          "internalType": "uint256",
          "name": "deliveryLocation",
          "type": "uint256"
        },
        {
          "internalType": "enum EvChargingMarket.ContractState",
          "name": "state",
          "type": "uint8"
        }
      ],
      "payable": false,
      "stateMutability": "view",
      "type": "function"
    },
    {
      "constant": true,
      "inputs": [],
      "name": "owner",
      "outputs": [
        {
          "internalType": "address",
          "name": "",
          "type": "address"
        }
      ],
      "payable": false,
      "stateMutability": "view",
      "type": "function"
    },
    {
      "constant": true,
      "inputs": [],
      "name": "totalAuction",
      "outputs": [
        {
          "internalType": "uint256",
          "name": "",
          "type": "uint256"
        }
      ],
      "payable": false,
      "stateMutability": "view",
      "type": "function"
    },
    {
      "constant": false,
      "inputs": [
        {
          "internalType": "uint256",
          "name": "_amount",
          "type": "uint256"
        },
        {
          "internalType": "uint256",
          "name": "_price",
          "type": "uint256"
        },
        {
          "internalType": "uint256",
          "name": "_time",
          "type": "uint256"
        },
        {
          "internalType": "uint256",
          "name": "_auctionTime",
          "type": "uint256"
        },
        {
          "internalType": "uint256",
          "name": "_location",
          "type": "uint256"
        }
      ],
      "name": "createReq",
      "outputs": [],
      "payable": false,
      "stateMutability": "nonpayable",
      "type": "function"
    },
    {
      "constant": false,
      "inputs": [
        {
          "internalType": "uint256",
          "name": "_aucId",
          "type": "uint256"
        },
        {
          "internalType": "bytes32",
          "name": "_sealedBid",
          "type": "bytes32"
        }
      ],
      "name": "makeSealedOffer",
      "outputs": [],
      "payable": false,
      "stateMutability": "nonpayable",
      "type": "function"
    },
    {
      "constant": false,
      "inputs": [
        {
          "internalType": "uint256",
          "name": "_aucId",
          "type": "uint256"
        }
      ],
      "name": "closeAuction",
      "outputs": [],
      "payable": false,
      "stateMutability": "nonpayable",
      "type": "function"
    },
    {
      "constant": false,
      "inputs": [
        {
          "internalType": "uint256",
          "name": "_aucId",
          "type": "uint256"
        }
      ],
      "name": "endReveal",
      "outputs": [],
      "payable": false,
      "stateMutability": "nonpayable",
      "type": "function"
    },
    {
      "constant": false,
      "inputs": [
        {
          "internalType": "uint256",
          "name": "_aucId",
          "type": "uint256"
        },
        {
          "internalType": "uint256",
          "name": "_price",
          "type": "uint256"
        }
      ],
      "name": "revealOffer",
      "outputs": [],
      "payable": false,
      "stateMutability": "nonpayable",
      "type": "function"
    },
    {
      "constant": false,
      "inputs": [
        {
          "internalType": "uint256",
          "name": "_aucId",
          "type": "uint256"
        },
        {
          "internalType": "bool",
          "name": "_state",
          "type": "bool"
        }
      ],
      "name": "setBuyerMeterReport",
      "outputs": [],
      "payable": false,
      "stateMutability": "nonpayable",
      "type": "function"
    },
    {
      "constant": false,
      "inputs": [
        {
          "internalType": "uint256",
          "name": "_aucId",
          "type": "uint256"
        },
        {
          "internalType": "bool",
          "name": "_state",
          "type": "bool"
        }
      ],
      "name": "setSellerMeterReport",
      "outputs": [],
      "payable": false,
      "stateMutability": "nonpayable",
      "type": "function"
    },
    {
      "constant": false,
      "inputs": [
        {
          "internalType": "uint256",
          "name": "_aucId",
          "type": "uint256"
        },
        {
          "internalType": "address",
          "name": "_buyer",
          "type": "address"
        },
        {
          "internalType": "address",
          "name": "_seller",
          "type": "address"
        }
      ],
      "name": "updateBalance",
      "outputs": [],
      "payable": false,
      "stateMutability": "nonpayable",
      "type": "function"
    },
    {
      "constant": false,
      "inputs": [
        {
          "internalType": "address",
          "name": "_user",
          "type": "address"
        }
      ],
      "name": "registerNewUser",
      "outputs": [],
      "payable": false,
      "stateMutability": "nonpayable",
      "type": "function"
    },
    {
      "constant": true,
      "inputs": [
        {
          "internalType": "uint256",
          "name": "_index",
          "type": "uint256"
        }
      ],
      "name": "getReq",
      "outputs": [
        {
          "internalType": "enum EvChargingMarket.ContractState",
          "name": "",
          "type": "uint8"
        }
      ],
      "payable": false,
      "stateMutability": "view",
      "type": "function"
    },
    {
      "constant": true,
      "inputs": [
        {
          "internalType": "uint256",
          "name": "_index",
          "type": "uint256"
        }
      ],
      "name": "getContract",
      "outputs": [
        {
          "components": [
            {
              "internalType": "address",
              "name": "buyer",
              "type": "address"
            },
            {
              "internalType": "address",
              "name": "seller",
              "type": "address"
            },
            {
              "internalType": "uint256",
              "name": "amount",
              "type": "uint256"
            },
            {
              "internalType": "uint256",
              "name": "buyerMaxPrice",
              "type": "uint256"
            },
            {
              "internalType": "uint256",
              "name": "currentPrice",
              "type": "uint256"
            },
            {
              "internalType": "uint256",
              "name": "secondLowestPrice",
              "type": "uint256"
            },
            {
              "internalType": "bool",
              "name": "buyerMeterReport",
              "type": "bool"
            },
            {
              "internalType": "bool",
              "name": "sellerMeterReport",
              "type": "bool"
            },
            {
              "internalType": "uint256",
              "name": "deliveryTime",
              "type": "uint256"
            },
            {
              "internalType": "uint256",
              "name": "auctionTimeOut",
              "type": "uint256"
            },
            {
              "internalType": "uint256",
              "name": "deliveryLocation",
              "type": "uint256"
            },
            {
              "internalType": "enum EvChargingMarket.ContractState",
              "name": "state",
              "type": "uint8"
            }
          ],
          "internalType": "struct EvChargingMarket.Contract",
          "name": "",
          "type": "tuple"
        }
      ],
      "payable": false,
      "stateMutability": "view",
      "type": "function"
    },
    {
      "constant": true,
      "inputs": [
        {
          "internalType": "uint256",
          "name": "_aucId",
          "type": "uint256"
        }
      ],
      "name": "getContractWinner",
      "outputs": [
        {
          "internalType": "address",
          "name": "",
          "type": "address"
        },
        {
          "internalType": "uint256",
          "name": "",
          "type": "uint256"
        }
      ],
      "payable": false,
      "stateMutability": "view",
      "type": "function"
    },
    {
      "constant": true,
      "inputs": [],
      "name": "getNumberOfReq",
      "outputs": [
        {
          "internalType": "address[]",
          "name": "",
          "type": "address[]"
        },
        {
          "internalType": "uint256[]",
          "name": "",
          "type": "uint256[]"
        },
        {
          "internalType": "uint256[]",
          "name": "",
          "type": "uint256[]"
        },
        {
          "internalType": "uint256[]",
          "name": "",
          "type": "uint256[]"
        }
      ],
      "payable": false,
      "stateMutability": "view",
      "type": "function"
    }
  ],
  "bytecode": "0x608060405234801561001057600080fd5b5033600460006101000a81548173ffffffffffffffffffffffffffffffffffffffff021916908373ffffffffffffffffffffffffffffffffffffffff160217905550612692806100616000396000f3fe608060405234801561001057600080fd5b506004361061010b5760003560e01c80637af3d55d116100a257806390af30871161007157806390af3087146102d55780639dcb0b48146102f6578063b5a5730d14610312578063c24d3fed1461032e578063c9295d7b1461034a5761010b565b80637af3d55d146102615780637d5224d31461027d5780638252ad9c146102995780638da5cb5b146102b75761010b565b806348caad68116100de57806348caad68146101b35780635e5c06e2146101cf5780636ebc8c861461020057806371790268146102305761010b565b8063236ed8f31461011057806335c6049c1461012c5780633ae7e5bc14610148578063474da79a14610178575b600080fd5b61012a60048036036101259190810190611d3a565b610366565b005b61014660048036036101419190810190611db2565b610487565b005b610162600480360361015d9190810190611d3a565b61065f565b60405161016f91906123c5565b60405180910390f35b610192600480360361018d9190810190611d3a565b61068c565b6040516101aa9c9b9a99989796959493929190612281565b60405180910390f35b6101cd60048036036101c89190810190611d63565b610753565b005b6101e960048036036101e49190810190611d11565b610aa6565b6040516101f79291906123e0565b60405180910390f35b61021a60048036036102159190810190611d3a565b610ad7565b6040516102279190612409565b60405180910390f35b61024a60048036036102459190810190611d3a565b610c5a565b60405161025892919061233b565b60405180910390f35b61027b60048036036102769190810190611d3a565b610cb4565b005b61029760048036036102929190810190611d11565b610e59565b005b6102a1610eb7565b6040516102ae9190612425565b60405180910390f35b6102bf610ebd565b6040516102cc91906121a5565b60405180910390f35b6102dd610ee3565b6040516102ed9493929190612364565b60405180910390f35b610310600480360361030b9190810190611dee565b61119d565b005b61032c60048036036103279190810190611db2565b6113e4565b005b61034860048036036103439190810190611e2a565b6115bc565b005b610364600480360361035f9190810190611e66565b611a2c565b005b806000600681111561037457fe5b60016000838152602001908152602001600020600a0160009054906101000a900460ff1660068111156103a357fe5b14156103ae57600080fd5b813373ffffffffffffffffffffffffffffffffffffffff166001600083815260200190815260200160002060000160009054906101000a900473ffffffffffffffffffffffffffffffffffffffff1673ffffffffffffffffffffffffffffffffffffffff161461041d57600080fd5b60016002600085815260200190815260200160002060020160006101000a81548160ff0219169083600281111561045057fe5b0217905550827ffd0589b9682733317d7f3b84a13bb57660efd49cad1cf97d6e04eec435ce605c60405160405180910390a2505050565b816000600681111561049557fe5b60016000838152602001908152602001600020600a0160009054906101000a900460ff1660068111156104c457fe5b14156104cf57600080fd5b82600360068111156104dd57fe5b60016000838152602001908152602001600020600a0160009054906101000a900460ff16600681111561050c57fe5b1461051657600080fd5b82610553577fec5452a2831a91ad88134c09ec66704f429203233b302191424ae37b8696240e8460405161054a9190612425565b60405180910390a15b826001600086815260200190815260200160002060060160016101000a81548160ff0219169083151502179055506001600085815260200190815260200160002060060160009054906101000a900460ff161561065957610621846001600087815260200190815260200160002060000160009054906101000a900473ffffffffffffffffffffffffffffffffffffffff166001600088815260200190815260200160002060010160009054906101000a900473ffffffffffffffffffffffffffffffffffffffff16610753565b7fd1c91c601909e5d2b8805bf1297b9d4e8bc3cfc6c91b4e90d6b5f7835f637d7c846040516106509190612425565b60405180910390a15b50505050565b600060016000838152602001908152602001600020600a0160009054906101000a900460ff169050919050565b60016020528060005260406000206000915090508060000160009054906101000a900473ffffffffffffffffffffffffffffffffffffffff16908060010160009054906101000a900473ffffffffffffffffffffffffffffffffffffffff16908060020154908060030154908060040154908060050154908060060160009054906101000a900460ff16908060060160019054906101000a900460ff169080600701549080600801549080600901549080600a0160009054906101000a900460ff1690508c565b826001600082815260200190815260200160002060060160019054906101000a900460ff1661078157600080fd5b6001600082815260200190815260200160002060060160009054906101000a900460ff166107ae57600080fd5b6000600160008681526020019081526020016000206007015490506000600160008781526020019081526020016000206002015490506000600160008881526020019081526020016000206005015482029050600360008773ffffffffffffffffffffffffffffffffffffffff1673ffffffffffffffffffffffffffffffffffffffff1681526020019081526020016000206001016040518060a00160405280898152602001858152602001848152602001600115158152602001838152509080600181540180825580915050906001820390600052602060002090600502016000909192909190915060008201518160000155602082015181600101556040820151816002015560608201518160030160006101000a81548160ff0219169083151502179055506080820151816004015550505080600360008873ffffffffffffffffffffffffffffffffffffffff1673ffffffffffffffffffffffffffffffffffffffff16815260200190815260200160002060000160008282540392505081905550600360008673ffffffffffffffffffffffffffffffffffffffff1673ffffffffffffffffffffffffffffffffffffffff1681526020019081526020016000206001016040518060a00160405280898152602001858152602001848152602001600015158152602001838152509080600181540180825580915050906001820390600052602060002090600502016000909192909190915060008201518160000155602082015181600101556040820151816002015560608201518160030160006101000a81548160ff0219169083151502179055506080820151816004015550505080600360008773ffffffffffffffffffffffffffffffffffffffff1673ffffffffffffffffffffffffffffffffffffffff16815260200190815260200160002060000160008282540192505081905550600660016000898152602001908152602001600020600a0160006101000a81548160ff02191690836006811115610a9857fe5b021790555050505050505050565b60036020528060005260406000206000915090508060000154908060020160009054906101000a900460ff16905082565b610adf611c21565b60016000838152602001908152602001600020604051806101800160405290816000820160009054906101000a900473ffffffffffffffffffffffffffffffffffffffff1673ffffffffffffffffffffffffffffffffffffffff1673ffffffffffffffffffffffffffffffffffffffff1681526020016001820160009054906101000a900473ffffffffffffffffffffffffffffffffffffffff1673ffffffffffffffffffffffffffffffffffffffff1673ffffffffffffffffffffffffffffffffffffffff168152602001600282015481526020016003820154815260200160048201548152602001600582015481526020016006820160009054906101000a900460ff161515151581526020016006820160019054906101000a900460ff16151515158152602001600782015481526020016008820154815260200160098201548152602001600a820160009054906101000a900460ff166006811115610c4457fe5b6006811115610c4f57fe5b815250509050919050565b6000806001600084815260200190815260200160002060010160009054906101000a900473ffffffffffffffffffffffffffffffffffffffff16600160008581526020019081526020016000206004015491509150915091565b8060006006811115610cc257fe5b60016000838152602001908152602001600020600a0160009054906101000a900460ff166006811115610cf157fe5b1415610cfc57600080fd5b813373ffffffffffffffffffffffffffffffffffffffff166001600083815260200190815260200160002060000160009054906101000a900473ffffffffffffffffffffffffffffffffffffffff1673ffffffffffffffffffffffffffffffffffffffff1614610d6b57600080fd5b600280600085815260200190815260200160002060020160006101000a81548160ff02191690836002811115610d9d57fe5b0217905550600360016000858152602001908152602001600020600a0160006101000a81548160ff02191690836006811115610dd557fe5b02179055506001600084815260200190815260200160002060010160009054906101000a900473ffffffffffffffffffffffffffffffffffffffff1673ffffffffffffffffffffffffffffffffffffffff16837f05daec5253c71d1b1b83aa1cd22e3fc88805f31350802a376d966cbb8d4c72f560405160405180910390a3505050565b6001600360008373ffffffffffffffffffffffffffffffffffffffff1673ffffffffffffffffffffffffffffffffffffffff16815260200190815260200160002060020160006101000a81548160ff02191690831515021790555050565b60005481565b600460009054906101000a900473ffffffffffffffffffffffffffffffffffffffff1681565b606080606080600080905060008090505b600054811015610f5457600280811115610f0a57fe5b6002600083815260200190815260200160002060020160009054906101000a900460ff166002811115610f3957fe5b14610f475781806001019250505b8080600101915050610ef4565b50606081604051908082528060200260200182016040528015610f865781602001602082028038833980820191505090505b509050606082604051908082528060200260200182016040528015610fba5781602001602082028038833980820191505090505b509050606083604051908082528060200260200182016040528015610fee5781602001602082028038833980820191505090505b5090506060846040519080825280602002602001820160405280156110225781602001602082028038833980820191505090505b509050600080905060008090505b6000548110156111845760028081111561104657fe5b6002600083815260200190815260200160002060020160009054906101000a900460ff16600281111561107557fe5b14611177576001600082815260200190815260200160002060000160009054906101000a900473ffffffffffffffffffffffffffffffffffffffff168683815181106110bd57fe5b602002602001019073ffffffffffffffffffffffffffffffffffffffff16908173ffffffffffffffffffffffffffffffffffffffff1681525050600160008281526020019081526020016000206003015485838151811061111a57fe5b602002602001018181525050600160008281526020019081526020016000206002015484838151811061114957fe5b6020026020010181815250508083838151811061116257fe5b60200260200101818152505081806001019250505b8080600101915050611030565b5084848484995099509950995050505050505090919293565b81600060068111156111ab57fe5b60016000838152602001908152602001600020600a0160009054906101000a900460ff1660068111156111da57fe5b14156111e557600080fd5b82600060028111156111f357fe5b6002600083815260200190815260200160002060020160009054906101000a900460ff16600281111561122257fe5b1461122c57600080fd5b8360028081111561123957fe5b6002600083815260200190815260200160002060020160009054906101000a900460ff16600281111561126857fe5b141561127357600080fd5b60405180604001604052803373ffffffffffffffffffffffffffffffffffffffff168152602001858152506002600087815260200190815260200160002060010160003373ffffffffffffffffffffffffffffffffffffffff1673ffffffffffffffffffffffffffffffffffffffff16815260200190815260200160002060008201518160000160006101000a81548173ffffffffffffffffffffffffffffffffffffffff021916908373ffffffffffffffffffffffffffffffffffffffff160217905550602082015181600101559050506000600260008781526020019081526020016000206000015490506002600087815260200190815260200160002060000160008154809291906001019190505560026000888152602001908152602001600020600001819055507f1480adfde6800b830f0fb4837d9964ee2c518a94e3bd695b87bddcbf5d0cbbc0338787846040516113d494939291906121f7565b60405180910390a1505050505050565b81600060068111156113f257fe5b60016000838152602001908152602001600020600a0160009054906101000a900460ff16600681111561142157fe5b141561142c57600080fd5b826003600681111561143a57fe5b60016000838152602001908152602001600020600a0160009054906101000a900460ff16600681111561146957fe5b1461147357600080fd5b826114b0577fec5452a2831a91ad88134c09ec66704f429203233b302191424ae37b8696240e846040516114a79190612425565b60405180910390a15b826001600086815260200190815260200160002060060160006101000a81548160ff0219169083151502179055506001600085815260200190815260200160002060060160019054906101000a900460ff16156115b65761157e846001600087815260200190815260200160002060000160009054906101000a900473ffffffffffffffffffffffffffffffffffffffff166001600088815260200190815260200160002060010160009054906101000a900473ffffffffffffffffffffffffffffffffffffffff16610753565b7fd1c91c601909e5d2b8805bf1297b9d4e8bc3cfc6c91b4e90d6b5f7835f637d7c846040516115ad9190612425565b60405180910390a15b50505050565b81600060068111156115ca57fe5b60016000838152602001908152602001600020600a0160009054906101000a900460ff1660068111156115f957fe5b141561160457600080fd5b826001600281111561161257fe5b6002600083815260200190815260200160002060020160009054906101000a900460ff16600281111561164157fe5b1461164b57600080fd5b8360028081111561165857fe5b6002600083815260200190815260200160002060020160009054906101000a900460ff16600281111561168757fe5b141561169257600080fd5b836040516020016116a3919061218a565b604051602081830303815290604052805190602001206002600087815260200190815260200160002060010160003373ffffffffffffffffffffffffffffffffffffffff1673ffffffffffffffffffffffffffffffffffffffff168152602001908152602001600020600101541461177b577f45053e0ee27acfd6c3624ffe293ea5ac2d7e6593e1db82a23d8573ecfbfb37db338586604051602001611749919061218a565b6040516020818303038152906040528051906020012060405161176e939291906121c0565b60405180910390a1611a25565b6002600681111561178857fe5b60016000878152602001908152602001600020600a0160009054906101000a900460ff1660068111156117b757fe5b14156118ff5760016000868152602001908152602001600020600401548410156118bf5760016000868152602001908152602001600020600401546001600087815260200190815260200160002060050181905550836001600087815260200190815260200160002060040181905550336001600087815260200190815260200160002060010160006101000a81548173ffffffffffffffffffffffffffffffffffffffff021916908373ffffffffffffffffffffffffffffffffffffffff1602179055507f95b9a1d69ecb2be7e31caa8f3d650b70dc0c57864577d342cbd0b46f526f7de833868660006040516118b2949392919061223c565b60405180910390a16118fa565b60016000868152602001908152602001600020600501548410156118f9578360016000878152602001908152602001600020600501819055505b5b611a24565b600160008681526020019081526020016000206003015484111561192257600080fd5b836001600087815260200190815260200160002060040181905550836001600087815260200190815260200160002060050181905550336001600087815260200190815260200160002060010160006101000a81548173ffffffffffffffffffffffffffffffffffffffff021916908373ffffffffffffffffffffffffffffffffffffffff160217905550600260016000878152602001908152602001600020600a0160006101000a81548160ff021916908360068111156119e057fe5b02179055507f9d868d83592ba4334f284a6e2431fb93ce33c74de14a02fc570f08934848df283386866000604051611a1b949392919061223c565b60405180910390a15b5b5050505050565b6000806000815480929190600101919050559050611a4f33828888888888611a57565b505050505050565b866001600088815260200190815260200160002060000160006101000a81548173ffffffffffffffffffffffffffffffffffffffff021916908373ffffffffffffffffffffffffffffffffffffffff16021790555084600160008881526020019081526020016000206002018190555083600160008881526020019081526020016000206003018190555082600160008881526020019081526020016000206007018190555081420160016000888152602001908152602001600020600801819055508060016000888152602001908152602001600020600901819055506001806000888152602001908152602001600020600a0160006101000a81548160ff02191690836006811115611b6757fe5b021790555060006002600088815260200190815260200160002060020160006101000a81548160ff02191690836002811115611b9f57fe5b0217905550600060026000888152602001908152602001600020600001819055508673ffffffffffffffffffffffffffffffffffffffff167fcc362c2593671af314a8db463f7711b926973faf57d5a992b498afe2b8d2aea9878688878787604051611c1096959493929190612440565b60405180910390a250505050505050565b604051806101800160405280600073ffffffffffffffffffffffffffffffffffffffff168152602001600073ffffffffffffffffffffffffffffffffffffffff1681526020016000815260200160008152602001600081526020016000815260200160001515815260200160001515815260200160008152602001600081526020016000815260200160006006811115611cb757fe5b81525090565b600081359050611ccc816125f3565b92915050565b600081359050611ce18161260a565b92915050565b600081359050611cf681612621565b92915050565b600081359050611d0b81612638565b92915050565b600060208284031215611d2357600080fd5b6000611d3184828501611cbd565b91505092915050565b600060208284031215611d4c57600080fd5b6000611d5a84828501611cfc565b91505092915050565b600080600060608486031215611d7857600080fd5b6000611d8686828701611cfc565b9350506020611d9786828701611cbd565b9250506040611da886828701611cbd565b9150509250925092565b60008060408385031215611dc557600080fd5b6000611dd385828601611cfc565b9250506020611de485828601611cd2565b9150509250929050565b60008060408385031215611e0157600080fd5b6000611e0f85828601611cfc565b9250506020611e2085828601611ce7565b9150509250929050565b60008060408385031215611e3d57600080fd5b6000611e4b85828601611cfc565b9250506020611e5c85828601611cfc565b9150509250929050565b600080600080600060a08688031215611e7e57600080fd5b6000611e8c88828901611cfc565b9550506020611e9d88828901611cfc565b9450506040611eae88828901611cfc565b9350506060611ebf88828901611cfc565b9250506080611ed088828901611cfc565b9150509295509295909350565b6000611ee98383611f1c565b60208301905092915050565b6000611f018383612155565b60208301905092915050565b611f1681612582565b82525050565b611f2581612513565b82525050565b611f3481612513565b82525050565b6000611f45826124c1565b611f4f81856124f1565b9350611f5a836124a1565b8060005b83811015611f8b578151611f728882611edd565b9750611f7d836124d7565b925050600181019050611f5e565b5085935050505092915050565b6000611fa3826124cc565b611fad8185612502565b9350611fb8836124b1565b8060005b83811015611fe9578151611fd08882611ef5565b9750611fdb836124e4565b925050600181019050611fbc565b5085935050505092915050565b611fff81612525565b82525050565b61200e81612525565b82525050565b61201d81612531565b82525050565b61202c81612594565b82525050565b61203b81612594565b82525050565b61204a8161254e565b82525050565b612059816125a6565b82525050565b610180820160008201516120766000850182611f1c565b5060208201516120896020850182611f1c565b50604082015161209c6040850182612155565b5060608201516120af6060850182612155565b5060808201516120c26080850182612155565b5060a08201516120d560a0850182612155565b5060c08201516120e860c0850182611ff6565b5060e08201516120fb60e0850182611ff6565b50610100820151612110610100850182612155565b50610120820151612125610120850182612155565b5061014082015161213a610140850182612155565b5061016082015161214f610160850182612023565b50505050565b61215e81612578565b82525050565b61216d81612578565b82525050565b61218461217f82612578565b6125dc565b82525050565b60006121968284612173565b60208201915081905092915050565b60006020820190506121ba6000830184611f2b565b92915050565b60006060820190506121d56000830186611f0d565b6121e26020830185612164565b6121ef6040830184612014565b949350505050565b600060808201905061220c6000830187611f0d565b6122196020830186612164565b6122266040830185612014565b6122336060830184612164565b95945050505050565b60006080820190506122516000830187611f0d565b61225e6020830186612164565b61226b6040830185612164565b6122786060830184612050565b95945050505050565b600061018082019050612297600083018f611f2b565b6122a4602083018e611f2b565b6122b1604083018d612164565b6122be606083018c612164565b6122cb608083018b612164565b6122d860a083018a612164565b6122e560c0830189612005565b6122f260e0830188612005565b612300610100830187612164565b61230e610120830186612164565b61231c610140830185612164565b61232a610160830184612032565b9d9c50505050505050505050505050565b60006040820190506123506000830185611f2b565b61235d6020830184612164565b9392505050565b6000608082019050818103600083015261237e8187611f3a565b905081810360208301526123928186611f98565b905081810360408301526123a68185611f98565b905081810360608301526123ba8184611f98565b905095945050505050565b60006020820190506123da6000830184612032565b92915050565b60006040820190506123f56000830185612041565b6124026020830184612005565b9392505050565b60006101808201905061241f600083018461205f565b92915050565b600060208201905061243a6000830184612164565b92915050565b600060c0820190506124556000830189612164565b6124626020830188612164565b61246f6040830187612164565b61247c6060830186612164565b6124896080830185612164565b61249660a0830184612164565b979650505050505050565b6000819050602082019050919050565b6000819050602082019050919050565b600081519050919050565b600081519050919050565b6000602082019050919050565b6000602082019050919050565b600082825260208201905092915050565b600082825260208201905092915050565b600061251e82612558565b9050919050565b60008115159050919050565b6000819050919050565b6000819050612549826125e6565b919050565b6000819050919050565b600073ffffffffffffffffffffffffffffffffffffffff82169050919050565b6000819050919050565b600061258d826125b8565b9050919050565b600061259f8261253b565b9050919050565b60006125b182612578565b9050919050565b60006125c3826125ca565b9050919050565b60006125d582612558565b9050919050565b6000819050919050565b600781106125f057fe5b50565b6125fc81612513565b811461260757600080fd5b50565b61261381612525565b811461261e57600080fd5b50565b61262a81612531565b811461263557600080fd5b50565b61264181612578565b811461264c57600080fd5b5056fea365627a7a72315820bf95bc8dda5fb1ef743bcedadc03a27005a4d26466ab56b52bd408df3ded2f506c6578706572696d656e74616cf564736f6c63430005100040",
  "source": "// SPDX-License-Identifier: MIT\r\npragma solidity >=0.4.22 <0.9.0;\r\npragma experimental ABIEncoderV2;\r\n\r\ncontract EvChargingMarket {\r\n    enum ContractState {\r\n        NotCreated,\r\n        Created,\r\n        HasOffer,\r\n        Established,\r\n        ReadyForPayement,\r\n        ReportNotOk,\r\n        Closed\r\n    }\r\n    enum AuctionState {\r\n        Created,\r\n        Closed,\r\n        RevealEnd\r\n    }\r\n\r\n    struct Payment {\r\n        uint256 bidId;\r\n        uint256 date;\r\n        uint256 energyAmount;\r\n        bool toPay; //or toReceive\r\n        uint256 total;\r\n    }\r\n\r\n    struct SealedBid {\r\n        address bidder;\r\n        bytes32 bid;\r\n    }\r\n\r\n    struct Account {\r\n        // User account\r\n        int256 balance;\r\n        Payment[] payments;\r\n        bool isUser;\r\n    }\r\n\r\n    struct Auction {\r\n        uint256 nbBid;\r\n        // SealedBid[] bids;\r\n        mapping(address => SealedBid) bids;\r\n        AuctionState state;\r\n    }\r\n\r\n    struct Contract {\r\n        address buyer; // EV address\r\n        address seller; // Winner EP address\r\n        uint256 amount;\r\n        uint256 buyerMaxPrice;\r\n        uint256 currentPrice;\r\n        uint256 secondLowestPrice;\r\n        bool buyerMeterReport;\r\n        bool sellerMeterReport;\r\n        uint256 deliveryTime;\r\n        uint256 auctionTimeOut;\r\n        uint256 deliveryLocation;\r\n        ContractState state;\r\n    }\r\n\r\n    modifier auctionNotClosed(uint256 _aucId) {\r\n        require(auctions[_aucId].state == AuctionState.Created);\r\n        _;\r\n    }\r\n\r\n    modifier auctionClosed(uint256 _aucId) {\r\n        require(auctions[_aucId].state == AuctionState.Closed);\r\n        _;\r\n    }\r\n\r\n    modifier revealNotEnded(uint256 _aucId) {\r\n        require(auctions[_aucId].state != AuctionState.RevealEnd);\r\n        _;\r\n    }\r\n\r\n    modifier auctionExisit(uint256 _aucId) {\r\n        require(contracts[_aucId].state != ContractState.NotCreated);\r\n        _;\r\n    }\r\n\r\n    modifier auctionTimeOut(uint256 _aucId) {\r\n        require(contracts[_aucId].auctionTimeOut > block.timestamp);\r\n        _;\r\n    }\r\n\r\n    modifier contractEstablished(uint256 _aucId) {\r\n        require(contracts[_aucId].state == ContractState.Established);\r\n        _;\r\n    }\r\n\r\n    modifier reportsOk(uint256 _aucId) {\r\n        require(contracts[_aucId].sellerMeterReport);\r\n        require(contracts[_aucId].buyerMeterReport);\r\n        _;\r\n    }\r\n\r\n    modifier buyerOnly(uint256 _aucId) {\r\n        require(contracts[_aucId].buyer == msg.sender);\r\n        _;\r\n    }\r\n\r\n    modifier sellerOnly(uint256 _aucId) {\r\n        require(contracts[_aucId].seller == msg.sender);\r\n        _;\r\n    }\r\n\r\n    modifier accountExist(address _user) {\r\n        require(accounts[_user].isUser);\r\n        _;\r\n    }\r\n\r\n    uint256 public totalAuction;\r\n\r\n    mapping(uint256 => Contract) public contracts;\r\n    mapping(uint256 => Auction) auctions;\r\n    mapping(address => Account) public accounts;\r\n\r\n    address public owner;\r\n\r\n    constructor() public {\r\n        owner = msg.sender;\r\n    }\r\n\r\n    event LogReqCreated(\r\n        address indexed buyer,\r\n        uint256 _aucId,\r\n        uint256 _maxPrice,\r\n        uint256 _amount,\r\n        uint256 _time,\r\n        uint256 _auctionTime,\r\n        uint256 _location\r\n    );\r\n    event LowestBidDecreased(\r\n        address _seller,\r\n        uint256 _aucId,\r\n        uint256 _price,\r\n        uint256 _amount\r\n    );\r\n    event FirstOfferAccepted(\r\n        address _seller,\r\n        uint256 _aucId,\r\n        uint256 _price,\r\n        uint256 _amount\r\n    );\r\n    event ContractEstablished(uint256 _aucId, address _buyer, address _seller);\r\n    event ReportOk(uint256 _aucId);\r\n    event ReportNotOk(uint256 _aucId);\r\n    event SealedBidReceived(\r\n        address seller,\r\n        uint256 _aucId,\r\n        bytes32 _sealedBid,\r\n        uint256 _bidId\r\n    );\r\n    event BidNotCorrectelyRevealed(\r\n        address bidder,\r\n        uint256 _price,\r\n        bytes32 _sealedBid\r\n    );\r\n    event ActionClosed(uint256 indexed _aucId);\r\n    event EndReveal(uint256 indexed _aucId, address indexed winner);\r\n\r\n    function createReq(\r\n        uint256 _amount,\r\n        uint256 _price,\r\n        uint256 _time,\r\n        uint256 _auctionTime,\r\n        uint256 _location\r\n    ) public {\r\n        uint256 aucId = totalAuction++;\r\n        storeAndLogNewReq(\r\n            msg.sender,\r\n            aucId,\r\n            _amount,\r\n            _price,\r\n            _time,\r\n            _auctionTime,\r\n            _location\r\n        );\r\n    }\r\n\r\n    function makeSealedOffer(uint256 _aucId, bytes32 _sealedBid)\r\n        public\r\n        auctionExisit(_aucId)\r\n        auctionNotClosed(_aucId)\r\n        revealNotEnded(_aucId)\r\n    {\r\n        auctions[_aucId].bids[msg.sender] = SealedBid(msg.sender, _sealedBid);\r\n        uint256 bidId = auctions[_aucId].nbBid;\r\n        auctions[_aucId].nbBid = auctions[_aucId].nbBid++;\r\n        emit SealedBidReceived(msg.sender, _aucId, _sealedBid, bidId);\r\n    }\r\n\r\n    function closeAuction(uint256 _aucId)\r\n        public\r\n        auctionExisit(_aucId)\r\n        buyerOnly(_aucId)\r\n    //to do: conractNotEstablished(_aucId)\r\n    //auctionTimeOut(_aucId)\r\n    {\r\n        auctions[_aucId].state = AuctionState.Closed;\r\n        emit ActionClosed(_aucId);\r\n    }\r\n\r\n    function endReveal(uint256 _aucId)\r\n        public\r\n        auctionExisit(_aucId)\r\n        buyerOnly(_aucId)\r\n    //to do: conractNotEstablished(_aucId)\r\n    //auctionTimeOut(_aucId)\r\n    {\r\n        auctions[_aucId].state = AuctionState.RevealEnd;\r\n        contracts[_aucId].state = ContractState.Established;\r\n        emit EndReveal(_aucId, contracts[_aucId].seller);\r\n    }\r\n\r\n    function revealOffer(uint256 _aucId, uint256 _price)\r\n        public\r\n        auctionExisit(_aucId)\r\n        auctionClosed(_aucId)\r\n        revealNotEnded(_aucId)\r\n    {\r\n        if (\r\n            auctions[_aucId].bids[msg.sender].bid !=\r\n            keccak256(abi.encodePacked(_price))\r\n        ) {\r\n            emit BidNotCorrectelyRevealed(\r\n                msg.sender,\r\n                _price,\r\n                keccak256(abi.encodePacked(_price))\r\n            );\r\n            return;\r\n        }\r\n        if (contracts[_aucId].state == ContractState.HasOffer) {\r\n            if (_price < contracts[_aucId].currentPrice) {\r\n                contracts[_aucId].secondLowestPrice = contracts[_aucId]\r\n                    .currentPrice;\r\n                contracts[_aucId].currentPrice = _price;\r\n                contracts[_aucId].seller = msg.sender;\r\n                emit LowestBidDecreased(msg.sender, _aucId, _price, 0);\r\n            } else {\r\n                if (_price < contracts[_aucId].secondLowestPrice) {\r\n                    contracts[_aucId].secondLowestPrice = _price;\r\n                }\r\n            }\r\n        } else {\r\n            require(_price <= contracts[_aucId].buyerMaxPrice);\r\n            contracts[_aucId].currentPrice = _price;\r\n            contracts[_aucId].secondLowestPrice = _price;\r\n            contracts[_aucId].seller = msg.sender;\r\n            contracts[_aucId].state = ContractState.HasOffer;\r\n            emit FirstOfferAccepted(msg.sender, _aucId, _price, 0);\r\n        }\r\n    }\r\n\r\n    function setBuyerMeterReport(uint256 _aucId, bool _state)\r\n        public\r\n        auctionExisit(_aucId)\r\n        contractEstablished(_aucId)\r\n    {\r\n        if (!_state) {\r\n            emit ReportNotOk(_aucId);\r\n        }\r\n        contracts[_aucId].buyerMeterReport = _state;\r\n        if (contracts[_aucId].sellerMeterReport) {\r\n            updateBalance(\r\n                _aucId,\r\n                contracts[_aucId].buyer,\r\n                contracts[_aucId].seller\r\n            );\r\n            emit ReportOk(_aucId);\r\n        }\r\n    }\r\n\r\n    function setSellerMeterReport(uint256 _aucId, bool _state)\r\n        public\r\n        auctionExisit(_aucId)\r\n        contractEstablished(_aucId)\r\n    {\r\n        if (!_state) {\r\n            emit ReportNotOk(_aucId);\r\n        }\r\n        contracts[_aucId].sellerMeterReport = _state;\r\n        if (contracts[_aucId].buyerMeterReport) {\r\n            updateBalance(\r\n                _aucId,\r\n                contracts[_aucId].buyer,\r\n                contracts[_aucId].seller\r\n            );\r\n            emit ReportOk(_aucId);\r\n        }\r\n    }\r\n\r\n    function updateBalance(\r\n        uint256 _aucId,\r\n        address _buyer,\r\n        address _seller\r\n    ) public reportsOk(_aucId) {\r\n        uint256 date = contracts[_aucId].deliveryTime;\r\n        uint256 amount = contracts[_aucId].amount;\r\n        uint256 amounToPay = amount * contracts[_aucId].secondLowestPrice;\r\n        accounts[_buyer].payments.push(\r\n            Payment(_aucId, date, amount, true, amounToPay)\r\n        );\r\n        accounts[_buyer].balance -= int256(amounToPay);\r\n        accounts[_seller].payments.push(\r\n            Payment(_aucId, date, amount, false, amounToPay)\r\n        );\r\n        accounts[_seller].balance += int256(amounToPay);\r\n        contracts[_aucId].state = ContractState.Closed;\r\n    }\r\n\r\n    function registerNewUser(address _user) public {\r\n        accounts[_user].isUser = true;\r\n    }\r\n\r\n    function getReq(uint256 _index) public view returns (ContractState) {\r\n        return (contracts[_index].state);\r\n    }\r\n\r\n    function getContract(uint256 _index) public view returns (Contract memory) {\r\n        return contracts[_index];\r\n    }\r\n\r\n    function getContractWinner(uint256 _aucId)\r\n        public\r\n        view\r\n        returns (address, uint256)\r\n    {\r\n        return (contracts[_aucId].seller, contracts[_aucId].currentPrice);\r\n    }\r\n\r\n    function getNumberOfReq()\r\n        public\r\n        view\r\n        returns (\r\n            address[] memory,\r\n            uint256[] memory,\r\n            uint256[] memory,\r\n            uint256[] memory\r\n        )\r\n    {\r\n        uint256 count = 0;\r\n        for (uint256 i = 0; i < totalAuction; i++) {\r\n            if (auctions[i].state != AuctionState.RevealEnd) {\r\n                count++;\r\n            }\r\n        }\r\n\r\n        address[] memory returnBuyer = new address[](count);\r\n        uint256[] memory returnPrice = new uint256[](count);\r\n        uint256[] memory returnAmount = new uint256[](count);\r\n        uint256[] memory returnAucID = new uint256[](count);\r\n\r\n        uint256 j = 0;\r\n        for (uint256 i = 0; i < totalAuction; i++) {\r\n            if (auctions[i].state != AuctionState.RevealEnd) {\r\n                returnBuyer[j] = contracts[i].buyer;\r\n                returnPrice[j] = contracts[i].buyerMaxPrice;\r\n                returnAmount[j] = contracts[i].amount;\r\n                returnAucID[j] = i;\r\n                j++;\r\n            }\r\n        }\r\n\r\n        return (returnBuyer, returnPrice, returnAmount, returnAucID);\r\n    }\r\n\r\n    function storeAndLogNewReq(\r\n        address _buyer,\r\n        uint256 _id,\r\n        uint256 _amount,\r\n        uint256 _price,\r\n        uint256 _time,\r\n        uint256 _auctionTime,\r\n        uint256 _location\r\n    ) private {\r\n        contracts[_id].buyer = _buyer;\r\n        contracts[_id].amount = _amount;\r\n        contracts[_id].buyerMaxPrice = _price;\r\n        contracts[_id].deliveryTime = _time;\r\n        contracts[_id].auctionTimeOut = block.timestamp + _auctionTime;\r\n        contracts[_id].deliveryLocation = _location;\r\n        contracts[_id].state = ContractState.Created;\r\n        auctions[_id].state = AuctionState.Created;\r\n        auctions[_id].nbBid = 0;\r\n        emit LogReqCreated(\r\n            _buyer,\r\n            _id,\r\n            _price,\r\n            _amount,\r\n            _time,\r\n            _auctionTime,\r\n            _location\r\n        );\r\n    }\r\n}\r\n",
  "sourcePath": "/Users/mihneaduican/aicifacultate/proiect_blockchain/proiect_block/contracts/EnergyTradingSecondPriceAuction.sol",
  "compiler": {
    "name": "solc",
    "version": "0.5.16+commit.9c3226ce.Emscripten.clang"
  },
  "schemaVersion": "3.4.11",
  "updatedAt": "2023-01-19T11:48:09.744Z",
  "networkType": "ethereum",
  "devdoc": {
    "methods": {}
  },
  "userdoc": {
    "methods": {}
  }
}